:080000000000012001040300CF
:020000022000DC
:10FC000080B500AF72B60E4B50221A700C4B7222A8
:10FC10005A700B4B6F229A70094B6722DA70084BAF
:10FC200053221A71064B69225A71054B67229A7149
:10FC3000034B6E22DA7113F0BBFE00BF80BD00BF24
:04FC40000004FF1F9E
:020000023000CC
:100020000000012001040300937403009F74030087
:10003000AB740300B7740300C37403008D74030032
:100040008D7403008D7403008D740300CF7403005E
:10005000DB7403008D740300E7740300D5390400DA
:10006000839A0300919A03009F9A0300AD9A0300BC
:10007000BB9A0300C99A0300D79A0300E59A0300CC
:10008000F39A0300019B03000F9B03001D9B0300D9
:100090002B9B0300399B0300479B0300559B0300E8
:1000A000639B0300F37403004532040065320400CF
:1000B000FF7403000B75030017750300237503001D
:1000C0002F7503003B75030047750300537503004C
:1000D0005F7503006B75030077750300837503007C
:1000E0008D7403008F7503008D7403009B750300EE
:1000F0008D7403008D7403008D740300A7750300D5
:10010000B3750300BF7503008D7403008D74030085
:10011000CB7503008D740300D7750300E3750300EE
:10012000EF750300FB7503000776030013760300E9
:100130001F7603008D7403008D7403008D7403001B
:100140008D7403002B76030037760300437603009B
:100150004F7603005B760300677603007376030037
:100160008D7403008D7403008D7403008D7403007F
:100170007F7603008D7403008D7403008D7403007B
:100180008D7403008D7403008D7403008D7403005F
:100190008D7403008D7403002BBF030039BF03006F
:1001A00047BF030055BF030067BF030079BF0300CB
:1001B0008BBF03009DBF0300ABBF0300B9BF0300AB
:1001C000C7BF0300D9BF0300EBBF0300FDBF03009F
:1001D0000FC003001DC003002BC0030039C0030083
:1001E0004BC003005DC003006FC003008B760300AB
:1001F00097760300A3760300AF760300BB76030077
:10020000C7760300D3760300DF760300EB760300A6
:10021000F7760300037703000F7703001B770300D3
:1002200027770300337703003F7703004B77030002
:1002300057770300637703006F7703007B77030032
:1002400087770300937703009F770300AB77030062
:10025000B7770300C3770300CF770300DB77030092
:10026000E7770300F3770300FF7703000B780300C1
:1002700017780300237803002F7803008D740300A0
:100280008D7403008D7403008D7403008D7403005E
:100290008D7403008D7403008D7403008D7403004E
:1002A0008D7403008D7403008D7403008D7403003E
:1002B0008D7403008D7403008D7403008D7403002E
:1002C0008D7403008D7403008D7403008D7403001E
:1002D0003B78030047780300537803005F780300FE
:1002E0006B78030077780300837803008F7803002E
:1002F0009B780300A7780300B3780300BF7803005E
:10030000CB780300D7780300E378030081C00300B3
:100310008FC003009DC00300ABC00300BDC003003D
:100320008D7403008D740300CFC00300DDC0030093
:10033000EBC00300F9C003000BC103008D74030080
:100340008D7403001DC103002BC1030039C10300DC
:0C03500047C1030059C10300EF7803000F
:1004000072B64FF000014FF000024FF000034FF0C2
:1004100000044FF000054FF000064FF00007B8460B
:10042000B946BA46BB46BC4602F04CFC0648854677
:100430000648804706488047064880470648804768
:1004400062B606F06BFEFEE700000120297903008A
:0C04500025740300653904004D7B030097
:100800005357412E302E350000000000000000003C
:100810004656323941000000393236323330312DFC
:0C082000464530310000000000000000E0
:100900001E1F000006000000E1FF13004857412EA3
:10091000302E310000000000000000000000000048
:1009200000000000000000010001000001000500BF
:1009300000366E0100000000000000000080000092
:1009400001000A010000020200000105010100008F
:100950001502400101010000000500030101000033
:100960004006C003010100004001C000003001400A
:100970000C00000000000000020000000000000069
:100980000011014000000000003001400D00000097
:100990000000000002000000000000000011014003
:1009A00000000000003001400E00000000000000C8
:1009B00002000000000000000011014000000000E3
:1009C000003001400F0000000000000002000000A5
:1009D0000000000000110140000000000030014054
:1009E00010000000000000000200000000000000F5
:1009F0000011014000000000003001401100000023
:100A00000000000002000000000000000011014092
:100A10000000000000200140020000000000000073
:100A20000000000000000000001001400000000075
:100A30000020014003000000000000000000000052
:100A400000000000001001400000000000500140C4
:100A50000200000000000000000000000000000094
:100A600000130140000000000030014003000000BE
:100A70000000000000000000000000000011014024
:100A800000000000003001400200000000000000F3
:100A90000000000000000000001101400000000004
:100AA00000500140030000000000000000000000B2
:100AB0000000000000130140000000000020014081
:100AC0000000000000000000000000000000000026
:100AD0000010014000000000002001400100000063
:100AE00000000000000000000000000000100140B5
:100AF000000000000020014006000000000000008F
:100B00000000000000000000001001400000000094
:100B1000002001400700000000000000000000006D
:100B20000000000000100140000000000030014003
:100B300000000000000000000000000000000000B5
:100B400000110140000000000030014001000000E1
:100B50000000000000000000000000000011014043
:100B600000000000004001400E00000000000000F6
:100B70000000000000000000001201400000000022
:100B8000004001400F0000000000000000000000D5
:100B90000000000000120140000000000040014081
:100BA0000000000000000000000000000000000045
:100BB0000012014000000000004001400100000060
:100BC00000000000000000000000000000120140D2
:100BD0000000000000400140020000000000000092
:100BE00000000000000000000012014000000000B2
:100BF0000040014003000000000000000000000071
:100C00000000000000120140000000000030014020
:100C100008000000000000000200000000000000CA
:100C200000110140000000000030014009000000F8
:100C30000000000002000000000000000011014060
:100C400000000000003001400A0000000000000029
:100C50000200000000000000001101400000000040
:100C6000005001400B0000000000000002000000E6
:100C7000000000000013014000000000005001408F
:100C80000C00000000000000020000000000000056
:100C9000001301400000000000500140050000006A
:100CA00000000000020000000000000000130140EE
:100CB00000000000006001400D0000000000000086
:100CC00001000000000000000014014001000000CD
:100CD000006001400500000000000000010000006D
:100CE000000000000014014001000000006001400D
:100CF00004000000000000000100000000000000EF
:100D00000014014001000000006001400E000000DE
:100D1000010000000100000000000000001401407C
:100D2000000000000060014003000000010000001E
:100D3000010000000000000000140140000000005D
:100D40000050014010000000000000000100000001
:100D500000000000001301400101000000500140AC
:100D60000F00000000000000010000000000000073
:100D700000130140010000000020014010000000AD
:100D80000000000001000000000000000010014011
:100D900001010000005001400600000000000000BA
:100DA00001000000000000000013014001000000ED
:100DB000005001400A000000000000000100000097
:100DC000000000000013014000000000005001403E
:100DD000080000000000000001000000000000000A
:100DE0000013014001000000006001400700000006
:100DF000000000000100000000000000001401409D
:100E0000010000000020014011000000000000006F
:100E1000010000000000000000100140010000007F
:100E2000005001400400000001000000010000002B
:100E300000000000001301400000000000200140FD
:100E40000F00000001000000010000000000000091
:100E5000001001400000000000600140060000009A
:100E6000010000000100000000000000001401402B
:100E700000000000006001400200000000000000CF
:100E8000010000000000000000140140010000000B
:100E9000002001400B0000000000000001000000E5
:100EA000000000000010014001000000006001404F
:100EB0000100000000000000010000000000000030
:100EC000001401400101000000600140000000002A
:100ED00001000000010000000000000000140140BB
:100EE00000000000002001400D0000000000000094
:100EF000030000000000000000100140000000009E
:100F0000002001400C000000000000000300000071
:100F100000000000001001400000000000500140EF
:100F200007000000000000000100000000000000B9
:100F30000013014001000000983BFF1F64D1050031
:100F4000F4D2050001000000283DFF1FF8D2050083
:100F500028E5050001000000584FFF1F04000800AD
:100F60000400080001000000584FFF1F080008009F
:100F700008000800010000000005FF1F983BFF1F4C
:100F80000100000020000000000000000000000040
:100F90000400000006000000020000000200000043
:100FA0000100000006000000020000000100000037
:100FB0000000000001000000000000000000000030
:100FC00000000000000000001710000001000000F9
:100FD000C80F030001000000F40100000001000040
:100FE00001000000666666060001000000000000C7
:100FF00000300A00000000000100000000010702AC
:101000000304050C080100000000000000000000BF
:10101000FF0F00000000000000300200000000018F
:1010200001000000020100000000000003010100B7
:101030000000000000000000FF0F000000000000A2
:10104000003028000000000001000000090A0B0029
:10105000000000000301000000000000000000008C
:10106000FF0F000000000000000000010000000071
:1010700000000000C0270900000000000000000080
:101080000000000000040000080000000000100044
:101090000100000001000000000400000004000046
:1010A0000800000000041000010000000200000021
:1010B0000008000000040000080000000008100004
:1010C0000100000003000000000C0000000400000C
:1010D00008000000000C10000100000004000000E7
:1010E00000100000000400000800000000101000C4
:1010F00001000000050000000014000000040000D2
:1011000008000000001410000100000006000000AC
:101110000018000000040000080000000018100083
:101120000100000007000000001C00000004000097
:1011300008000000001C100001000000000000007A
:1011400000000000DD15040051160400000000003E
:101150000002000000010000800000000800000004
:10116000080000007C100300000000007446FF1F10
:1011700004000000800000009446FF1F04000000EF
:1011800080000000010060000001FF00100060000E
:101190000000FF00200060000000FF003000600041
:1011A0000000FF00400060000101FF0050006000EF
:1011B0000100FF00600060000100FF00700060009F
:1011C0000100FF00080002006C11030084110300FD
:1011D0003C11030008000F00100011001200130062
:1011E0001400150016001B001C001D001E001F002F
:1011F00020002300240025002A002B002C002D00B5
:101200002E002F003000340038003C003D003E002E
:1012100040004100430046004700480049004A00A2
:101220004B004C004D004E0054005A005D00600021
:10123000610062006500660067006A006B00710073
:10124000720077007B007C007E007F0080008100C0
:101250008200830084008500860087008800890062
:101260000000010002000300040005000600070062
:10127000080009000A000B000C000D000E000F0012
:1012800000000340004003400080034000C00340D2
:1012900000D0034000E00340500057005E00AD0066
:1012A000B400BB004F0056005D00AC00B300BA00B4
:1012B0004E0055005C00AB00B200B9005100580070
:1012C0005F00AE00B500BC00520059006000AF00E6
:1012D000B600BD0053005A00610080FF80FF80FF10
:1012E00054005B00620080FF80FF80FF010101016C
:1012F00001010000010101000000000000000340A6
:10130000004003400080034000C0034000D0034081
:1013100000E00340400000004000000040000000EA
:10132000200000002000000020000000000003401A
:10133000004003400080034000C0034000D0034051
:1013400000E0034001010101010100000000034031
:10135000004003400080034000C0034000D0034031
:1013600000E00340010101000000000030003100F6
:10137000320033000090044000A0044000B004405C
:1013800000C0044000D0044000E004400808080801
:101390000808000000000440001004401300000092
:1013A0000000000053572E312E312E332E42000004
:1013B00056312E3256312E3056312E30000000007C
:1013C000E815FF1F0000000001010000EA15FF1FE3
:1013D0000000000002020000EC15FF1F00000000EA
:1013E00003000000D015FF1F0000000004010000F2
:1013F000D215FF1F0000000005070000D415FF1FD5
:101400000000000006020000D615FF1F00000000CB
:1014100007030000D815FF1F0000000008040000AB
:10142000DA15FF1F0000000009050000DC15FF1F92
:10143000000000000A0C0000DE15FF1F0000000085
:101440000B090000E015FF1F000000000C0A00005F
:10145000E215FF1F000000000D0B0000E415FF1F48
:1014600000000000040000007D540400040100009E
:101470007D540400040200007D54040004010000B7
:101480007D540400040000007D54040004000000AA
:101490007D540400040000007D540400040000009A
:1014A0007D540400040000007D540400040000008A
:1014B0007D540400040000007D540400040000007A
:1014C0007D540400040000007D540400040000006A
:1014D0007D54040093000000C08A0000688300006F
:1014E0007E7C000002760000EA6F00002C6A00009B
:1014F000BE640000A05F0000D25A00004A560000FF
:10150000FE510000F84D0000244A00008C46000007
:1015100026430000E83F0000DC3C0000F8390000F2
:1015200046370000B23400003C320000EE2F0000CD
:10153000BE2D0000AC2B0000AE290000D827000013
:101540000F26000060240000C72200004221000096
:10155000D01F0000701E0000221D0000E31B0000D1
:10156000B41A000094190000811800007C170000D4
:101570008316000095150000B3140000DE13000070
:10158000141300005212000098110000E710000030
:101590003D1000009B0F0000FF0E00006A0E0000CF
:1015A000DC0D0000530D0000D10C0000530C0000B6
:1015B000DB0B0000680B0000FA0A0000900A000034
:1015C0002B0A0000CA0900006D0900001309000081
:1015D000BD0800006B0800001C080000D0070000D8
:1015E0008707000041070000FE060000BD0600005E
:1015F0007F060000440600000B060000D405000032
:101600009F0500006C0500003B0500007005000010
:10161000DF040000B304000089040000610400003E
:101620003A04000015040000F1030000CE0300009E
:10163000AD0300008D0300006E03000050030000A6
:101640003403000019030000FF020000E60200005E
:10165000CE020000B6020000A00200008B020000D3
:1016600076020000620200004E0200003C02000010
:101670002A0200001902000008020000F801000020
:10168000E8010000D9010000CB010000BD0100000D
:10169000AF010000A2010000960100008A010000D5
:1016A0007E01000073010000680100005D01000080
:1016B00053010000490100003F0100003601000015
:1016C0002D010000250100001C0100001401000094
:1016D0000C01000005010000FE000000F700000002
:1016E000F0000000E9000000E3000000DD00000061
:1016F000D7000000D1000000CB000000C6000000B1
:10170000C0000000BB000000B6000000B1000000F7
:10171000AD000000A8000000A4000000A000000030
:101720009C00000093000000D8E3020064BC0200AB
:10173000AC97020084740200B4530200D834020053
:10174000F017020034FC01006CE2010034CA010011
:1017500028B30100489D0100F88801008E75010042
:1017600046630100F8510100A44101002C32010040
:1017700090230100B21501009C0801001CFC000030
:1017800046F0000006E5000066DA00005CD00000CC
:10179000CAC60000C4BD00002CB5000002AD0000A8
:1017A00046A50000EE9D0000FA960000569000004D
:1017B0000C8A0000128400005E7E0000F0780000B9
:1017C000C8730000E66E0000366A0000C2650000C3
:1017D000806100007A5D00009C590000F055000017
:1017E0006C5200001A4F0000E64B0000DA4800007F
:1017F000F64500003043000088400000083E00002D
:101800009C3B00004E39000014370000F834000003
:10181000FA32000006310000302F00006E2D00006B
:10182000B62B00001C2A00008C28000010270000A6
:10183000A325000045240000F6220000B521000089
:1018400080200000581F00003D1E00002C1D0000DD
:10185000271C00002C1B00003B1A0000531900003D
:10186000751800009F170000D21600000C1600002B
:101870004E15000098140000E81300003F1300000C
:101880009D120000001200006A110000D910000033
:101890004D100000C70F0000460F0000C90E0000E9
:1018A000520E0000DE0D00006F0D0000040D000060
:1018B0009C0C0000380C0000D80B00007B0B0000D3
:1018C000220B0000CB0A0000780A0000270A000063
:1018D000DA0900008E090000460900000009000036
:1018E000BC0800007B0800003C080000FF07000067
:1018F000C40700008B070000530700001E0700000C
:10190000EA060000B806000088060000590600003C
:101910002B060000FF050000D5050000AB05000008
:10192000830500005D050000370500001305000079
:10193000EF040000CD040000AC0400008C040000A3
:101940006D0400004F040000310400001504000085
:10195000FA030000DF030000C5030000AC03000031
:10196000930300007C030000650300004F030000A8
:1019700039030000CE0000006A2C0700E8C0060012
:101980001D5C060098FD0500F3A40500CA51050082
:10199000C303050088BA0400CB7504004135040078
:1019A000A6F80300B8BF03003D8A0300FA570300FE
:1019B000BD28030044FC020055D20200FDAA02002B
:1019C0000F86020060630200CB4202002A2402005C
:1019D0005D07020045EC0100C5D20100C3BA010059
:1019E0002CA40100E38E0100D17A0100E36701001D
:1019F000065601002A4501003E350100332601004C
:101A0000FC1701008C0A0100DEFD0000DFF1000080
:101A100083E60000C1DB000091D10000E9C70000AF
:101A2000C2BE000015B60000D9AD00000AA6000035
:101A3000979E000086970000D0900000718A0000F9
:101A400064840000A37E00002C790000F97300007C
:101A5000076F0000526A0000DC6500009B61000017
:101A60008E5D0000B2590000055600008352000050
:101A70002A4F0000F94B0000ED4800000546000029
:101A80003D430000964000000D3E0000A13B0000D9
:101A9000513900001B370000FE340000F83200000E
:101AA0000A310000302F00006C2D0000BA2B00001E
:101AB0001B2A00008D28000010270000A22500002E
:101AC00043240000F3220000B02100007A2000002F
:101AD000521F0000351E0000241D00001F1C0000C6
:101AE000231B0000321A00004B1900006C18000084
:101AF00097170000C91600000316000045150000E6
:101B00008E140000DE130000341300009112000058
:101B1000F51100005E110000CC1000004010000024
:101B2000BA0F0000380F0000BB0E0000430E00008B
:101B3000CF0D00005F0D0000F30C00008B0C0000C7
:101B4000270C0000C60B00006A0B0000110B000000
:101B5000BC0A0000690A00001A0A0000CD09000052
:101B6000830900003B090000F6080000B3080000EC
:101B70007208000034080000F7070000BD070000ED
:101B8000840700004D07000019070000E50600006B
:101B9000B406000084060000560600002906000076
:101BA000FE050000D4050000AC050000840500001F
:101BB0005E0500003A05000016050000F404000070
:101BC000D2040000B104000092040000730400007D
:101BD00055040000380400001C040000010400004B
:101BE000E7030000CD030000B50300009D030000E3
:101BF000860300006F0300005A0300004403000046
:101C0000300300001C03000008030000F60200007F
:101C1000E3020000D1020000C0020000AF02000099
:101C20009F0200008F02000080020000710200008D
:101C30006202000054020000460200003902000067
:101C40002C0200001F020000130200000702000027
:101C5000FB010000F0010000E5010000DA010000D6
:101C6000CF010000C5010000BB010000B101000070
:101C7000A80100009F010000960100008D010000F6
:101C8000840100007C010000740100006C01000070
:101C9000650100005D010000560100004F010000D9
:101CA00048010000410100003B0100003401000038
:101CB00000000000BD630400F96904000100000099
:101CC000BD630400F969040002000000BD63040064
:101CD000F9690400E1840400298D040029850400C9
:101CE00051850400F98404000D1504008D160400CC
:101CF000EA4857412E302E3100000000000000005D
:101D000000000000000000000000140101000000BD
:101D100000000000000000000000000000001401AE
:101D200001000000000000000000000000000000B2
:101D300000000000000000000000000000000000A3
:101D4000000000000000000000000000A55A000094
:101D5000EA00000000000000000000000000000099
:101D60000000000000000000000000000000000073
:101D70000000000000000000000000000000000063
:101D80000000000000000000000000000000000053
:101D90000000000000000000000000000000000043
:101DA000000000000000000000000000A55A000034
:101DB000EA00000000000000000000000000000039
:101DC0000000000000000000000000000000000013
:101DD0000000000000000000000000000000000003
:101DE00000000000000000000000000000000000F3
:101DF00000000000000000000000000000000000E3
:101E0000000000000000000000000000A55A0000D3
:101E1000EA000000000000000000000000000000D8
:101E200000000000000000000000000000000000B2
:101E300000000000000000000000000000000000A2
:101E40000000000000000000000000000000000092
:101E50000000000000000000000000000000000082
:101E6000000000000000000000000000A55A000073
:101E7000EA00000000000000000000000000000078
:101E80000000000000000000000000000000000052
:101E90000000000000000000000000000000000042
:101EA0000000000000000000000000000000000032
:101EB0000000000000000000000000000000000022
:101EC000000000000000000000000000A55A000013
:101ED000EA00000000000000000000000000000018
:101EE00000000000000000000000000000000000F2
:101EF00000000000000000000000000000000000E2
:101F000000000000000000000000000000000000D1
:101F100000000000000000000000000000000000C1
:101F2000000000000000000000000000A55A0000B2
:101F3000EA000000000000000000000000000000B7
:101F40000000000000000000000000000000000091
:101F50000000000000000000000000000000000081
:101F60000000000000000000000000000000000071
:101F70000000000000000000000000000000000061
:101F8000000000000000000000000000A55A000052
:101F9000EA00000000000000000000000000000057
:101FA0000000000000000000000000000000000031
:101FB0000000000000000000000000000000000021
:101FC0000000000000000000000000000000000011
:101FD0000000000000000000000000000000000001
:101FE000000000000000000000000000A55A0000F2
:101FF0005E000300AC1FFF1FAC16FF1F0C17FF1F76
:102000006C17FF1FF01C03005E0001000C20FF1F77
:10201000CC17FF1F2C18FF1F8C18FF1F501D03002B
:102020005E0001006C20FF1FEC18FF1F4C19FF1F02
:10203000AC19FF1FB01D03005E000300CC20FF1F82
:102040000C1AFF1F6C1AFF1FCC1AFF1F101E030073
:102050005E0003002C21FF1F2C1BFF1F8C1BFF1F8A
:10206000EC1BFF1F701E03005E0003008C21FF1F8E
:102070004C1CFF1FAC1CFF1F0C1DFF1FD01E0300BC
:102080005E000300EC21FF1F6C1DFF1FCC1DFF1F16
:102090002C1EFF1F301F03005E0003004C22FF1F99
:1020A0008C1EFF1FEC1EFF1F4C1FFF1F901F030005
:1020B00001000F00000010000D0000001D001100C5
:1020C00000002E000700000035000200000037006D
:1020D0000A00000041000100000042000100000071
:1020E0004300190000005C000200000001000D0028
:1020F00001000E000D0001001B000D000100280072
:102100000D00010035000D00010042000D0001002E
:102110004F000D0001005C000200010001000D00F5
:1021200002000E000D0002001B000D00020028003E
:102130000D00020035000D00020042000D000200FB
:102140004F000D0002005C000200020001005B0075
:1021500003005C000200030001000D0004000E00FB
:102160000D0004001B000D00040028000D000400F9
:1021700035000D00040042000D0004004F000D006A
:1021800004005C000200040001005A0005005B002E
:10219000010005005C0002000500010014000600BB
:1021A0001500470006005C0002000600AC1FFF1F80
:1021B000F01C0300000001005E00000000000000B1
:1021C0000C20FF1F501D0300000010005E000000E7
:1021D000600000006C20FF1FB01D03000000200005
:1021E0005E000000C0000000CC20FF1F101E030096
:1021F000000030005E000000200100002C21FF1FC5
:10220000701E0300000040005E000000800100001E
:102210008C21FF1FD01E0300000050005E00000054
:10222000E0010000EC21FF1F301F030000006000F0
:102230005E000000400200004C22FF1F901F0300C0
:10224000000070005E000000A0020000000100001D
:10225000759405000101000045840400157F050008
:102260003D7F05004B7F0500637F0500717F050002
:102270006E010101010000000100000032000000B9
:102280003200000001000000010000000100000019
:1022900001000000E02E000001000000010000002D
:1022A0006400000064000000010000002C01000038
:1022B0002C0100007D790500B8E6870A01001F00A7
:1022C00001022801B9790500BBE6880B01001F0057
:1022D00001022801ED790500F897160C01001F0096
:1022E00001022801417A0500F897170D01001F002F
:1022F00001022801957A0500F897060E01001F00DB
:1023000001022801DD7A0500FB97180F01001F006C
:1023100001022801257B0500FB97191201001F000F
:10232000010228016D7B0500F8974B1301001F0087
:1023300001022801B57B0500FC97191401001F005C
:1023400001022801FD7B0500FC97181501001F0004
:1023500001022801457C0500FD97191601001F00A8
:10236000010228018D7C0500FD97181701001F0050
:1023700001022801D57C0500F897091C01001F0007
:10238000010228011D7D0500F997091D01001F00AC
:1023900001022801657D0500F897711E01001F00EC
:1023A00001022801AD7D0500F897491F01001F00BB
:1023B00001022801057E0500F997492001001F0050
:1023C000010228015D7E0500FA97492101001F00E6
:1023D00001022801B57E0500FA97092201001F00BD
:1023E00001022801E41BB81B0810CC0FB80FFC1F1A
:1023F0000808080808080000CC38FF1FDC38FF1F59
:10240000F038FF1FD438FF1FC438FF1F9438FF1F58
:10241000C9A404003DA60400B1A5040071A60400EF
:10242000A5A604000000000085A4040049A404003F
:10243000F54805000DA40400D1A30400296A050095
:102440000101020101000000000000000000000086
:1024500001020004081000007C1FDC1DB40F4C0FAB
:10246000440FDC0BBC0BB00B200A0C070800090062
:102470000000010002000300040005000600070040
:10248000070601060401060600000000BC38FF1F15
:10249000E838FF1FE438FF1FB438FF1FB038FF1FB4
:1024A000AC38FF1F9C38FF1FA438FF1F000000003E
:1024B0000000000095060500C1060500ED060500B8
:1024C0001907050045070500710705009D07050070
:1024D000C90705000B740500DD730500B7A90400EA
:1024E00097A9040077A9040037A9040057A904009C
:1024F00017A90400F7A80400D7A8040000000000F2
:10250000000000000300BA02FFFFFF1FFFFF0300EF
:10251000FFFF031CFFFF0310FFFFFF1FFFFF030070
:10252000FFFFFF1FFFFF0300FFFFFF1FFFFF030071
:10253000FFFFFF1FFFFF0300FFFFFF1FFFFF030061
:10254000FFFFFF1FFFFF030000000000070601065A
:102550000401060600000000000001000800010060
:10256000090001000A0001000B0001000C0001003D
:102570000D0001000E0001000F000100100001001D
:1025800011000100120001000000FFFFFFFFFFFF2C
:10259000FFFFFFFFFFFFFFFF010002000300040039
:1025A000050006000700080009000A000B000000F3
:1025B000B8250300BEBA00000000020002000000BF
:1025C0000101000002002C0196002C0100006400B3
:1025D0000600000100080001060A190100000000C1
:1025E0002A000000000000000000000000000000C1
:1025F00001020000000000001700000009000000B8
:10260000160000000A000000150000000C00000089
:10261000170000000900000017000000090000007A
:102620000800000010000000FFFFFFFFFFFFFFFF9A
:10263000FFFFFFFFFFFFFFFF0001FFFF02FFFFFFA4
:10264000FF03FFFFFFFFFFFFFFFF0405FFFFFF0684
:1026500007FFFFFFFFFF0809FF0AFFFFFFFFFFFF64
:10266000FFFFFFFFFF0B0CFFFFFFFFFFFF0D000051
:1026700001117F070200000001117F070203030020
:1026800001002F050105050001117F050206050067
:1026900001002F07010A090001002507010B0900AD
:1026A00001117506020C090001117F04020E0B00D6
:1026B0000722250604120F000F33250404191D00FC
:1026C0000100750601233B000100250701243B00A2
:1026D00001117F0702253B0001117F0402263C0007
:1026E0000000200001283E0031FA04003DD704001C
:1026F000F5D6040019D704003DFA040061D70400A0
:102700007DD70400A9FB0400E905050002000F00C5
:102710001F0000000000000059F9040002000F0033
:102720001E0000000100000071F9040002000F000B
:102730001D0000000200000089F9040002000F00E3
:102740001F00000003000100B5CC040002000F00D0
:102750001F00000004000200EBCC040004000F0086
:102760001D0000000600000021CD040003000F0042
:102770001D00000006000000AFCD040003000F00A4
:102780001D0000000600000037CE040006000F0008
:102790001D0000000600000021CF040002000F0011
:1027A0001D0000000600000069D1040000000F00B9
:1027B0001F00000006000400FD05050000000500E4
:1027C0001F0000000600000045D2040002000500C2
:1027D0001E00000006000000A1F90400060005002C
:1027E0001E00000005000000B9F9040003000F00FE
:1027F0001C00000006000300D1F9040003000F00D4
:102800001C00000006000300E9F9040003000F00AB
:102810001C0000000600030001FA040003000F0082
:102820001C0000000600030019FA04001200050055
:1028300016000000060000009DD2040018000500EC
:102840001600000006000000FDD204001000050084
:1028500016000000060200005DD30400050005001C
:102860001600000006020000BDD304000D000500A4
:1028700016000000060200001DD404005D000500E3
:1028800016000000060000005DD4040017000500DB
:1028900016000000060000009DD40400040005009E
:1028A0001400000006030000FDD40400070005002A
:1028B000140000000603000011D504000400050008
:1028C000140000000603000051D504000D000500AF
:1028D000140000000603000065D504000400050094
:1028E0001400000006030000A5D504000A0005003E
:1028F0001400000006030000B9D504000400050020
:102900001400000006030000F9D5040009000500CA
:1029100014000000060300000DD6040004000500AA
:1029200014000000060300004DD604000A00050054
:10293000140000000603000061D60400000005003A
:102940001600000006000000ED0105000000050073
:102950001F0000000600000071D2040002000F00FA
:102960001F0000000600000051FA040002000F00E2
:102970001C00000006010000A1D6040002000F00A8
:102980001C00000006010000CBD604000102030178
:10299000030102040A010200010203F089F187F138
:1029A0008CF1F0F1F6F1FAF1FCF1F100F1F103F143
:1029B000F200F1F203F1F300F1F303F1F400F1F4AA
:1029C00003F1F500F1F503000102000089F00F00AA
:1029D0001D0000000F0000000DDC040020F10400C9
:1029E0001D0000000F00000045DC040021F1040080
:1029F0001D0000000F0000007DDC040022F1040037
:102A00001D0000000F000000B5DC040070F10400A0
:102A10001D0000000F000000EDDC040071F1040057
:102A20001D0000000F00000025DD040084F10700F8
:102A30001D0000000F0000005DDD040087F115009F
:102A40001D0000000F00000095DD040088F1140057
:102A50001D0000000F000000CDDD040089F10F0013
:102A60001D0000000F00000005DE04008AF10700D1
:102A70001D0000000F0000003DDE04008CF10D0081
:102A80001D0000000F00000075DE0400F0F10200E0
:102A90001D0000000F000000ADDE0400F1F1030096
:102AA0001F0000000F000000E5DE0400F2F1090045
:102AB0001F0000000F00000007DF0400F3F1060014
:102AC0001F0000000F00000029DF0400F4F10500E2
:102AD0001F0000000F0000004BDF0400F5F10600AE
:102AE0001F0000000F0000006DDF0400F6F10A0077
:102AF0001F0000000F0000008FDF0400F7F16C00E2
:102B00001D0000000F000000C7DF0400F8F10C00FA
:102B10001D0000000F000000FFDF0400F9F11F009E
:102B20001D0000000F00000037E00400FAF15A0019
:102B30001D0000000F0000006FE00400FBF1C80062
:102B40001D0000000F000000A7E00400FCF11400CD
:102B50001D0000000F000000DFE004000100010183
:102B60001600000005000000030000001600000031
:102B70000500000017E1040001010101010101014C
:102B8000C8641414000000000000000000000000F1
:102B900000000000C800C800C800E803C800C80062
:102BA000C800C800F5070500010805000D0805006C
:102BB0001908050025080500310805003D08050035
:102BC00049080500000000000000000000000000AF
:102BD00000000000000000000000000000000000F5
:102BE00000000000000000000000000000000000E5
:102BF0000000000000000000C42B0300CC2B0300E9
:102C0000D42B0300D82B0300E02B0300E42B03009C
:102C1000E82B0300F02B0300000001000300040078
:102C20000001010200000203030400002121212110
:102C3000000000000100000002000000040000008D
:102C4000080000001000000020000000400000000C
:102C500080000000000100000002000000040000ED
:102C600000080000001000000020000000400000EC
:102C700000800000000001000000020000000400CD
:102C800000000800000010000000200000004000CC
:102C900000008000000000010000000200000004AD
:102CA00000000008000000100000002000000040AC
:102CB00000000080FF00010102020202030303037F
:102CC000030303031B490C684FF001031C401A491E
:102CD0001A4A521A013A06DD4FF05A304FF05A3371
:102CE00009C1083AFCDA002C0BD01549154A521AD2
:102CF000013A06DD4FF05A304FF05A3309C1083A15
:102D0000FCDA1149114A521A013A06DD4FF05A30E5
:102D10004FF05A3309C1083AFCDA0D490D4A521AEC
:102D2000013A06DD4FF05A304FF05A3309C1083AE4
:102D3000FCDA704700F007400000FF1F0004FF1F8F
:102D40000004FF1F0005FF1F0005FF1F00FC0020FF
:102D500000FC00200000012080B483B000AF786048
:102D60007B68DA687B6819687B685B68CB1A79686E
:102D7000896801FB03F31A447B68DA607B68DB68CF
:102D80001A137B685A6000BF0C37BD4680BC704781
:102D900080B485B000AF78607B685B697A689268C0
:102DA00002FB03F3FB607B685B697A68526803FB94
:102DB00002F27B681B681344FA681344BB607B68AB
:102DC0005B6A7A68126A02FB03F3BA681344BB6059
:102DD000BB68DA137B68DA617B68DA697B68DB6879
:102DE0009A420EDD7B68DA687B68DA617B685B6932
:102DF000002B21DA7B681A68FB681A447B681A602A
:102E00001AE07B68DA697B681B699A420EDA7B6894
:102E10001A697B68DA617B685B69002B0CDD7B6873
:102E20001A68FB681A447B681A6005E07B681A68B8
:102E3000FB681A447B681A6000BF1437BD4680BC2B
:102E4000704780B400AF184B5B69174A43F0020328
:102E50005361154B00229A62134B40F25372C3F830
:102E60000421114B41F2F952C3F808210E4B40F2F4
:102E70005372C3F884200C4B41F2F952C3F88820F6
:102E8000094B40F25372C3F88421074B41F2F952C7
:102E9000C3F88821044B5B69034A43F00103536183
:102EA00000BFBD4680BC70470090044080B400AFB6
:102EB000184B5B69174A43F002035361154BFF221D
:102EC0009A62144B40F25372C3F80421114B41F241
:102ED000F952C3F808210F4B40F25372C3F8842013
:102EE0000C4B41F2F952C3F888200A4B40F253725E
:102EF000C3F88421074B41F2F952C3F88821054BEE
:102F00005B69044A43F00103536100BFBD4680BCC6
:102F1000704700BF0090044080B485B000AFF860F7
:102F2000B9607A603B607B68FA681A60BB685A00D7
:102F3000FB68134442F2F34202FB03F39A133B682B
:102F40001A6000BF1437BD4680BC704780B485B09E
:102F500000AFF860B9607A603B60FB683A6803FBD9
:102F600002F2BB68796801FB03F31344DA13BB690F
:102F70001A60BB683A6803FB02F2FB68796801FBE0
:102F800003F3D31ADA13FB691A6000BF1437BD4686
:102F900080BC704780B485B000AFF860B96011465E
:102FA0001A460B46FB801346BB80B7F90430FA681B
:102FB00003FB02F2B7F90630B96801FB03F3D31A39
:102FC000DA13BB691A60B7F90630FA6803FB02F23C
:102FD000B7F90430B96801FB03F31344DA13FB6952
:102FE0001A6000BF1437BD4680BC704790B583B0EF
:102FF00000AF78607B681C040A4B1B6819460A48BE
:1030000003F090FD0346184603F0B4FE03464FF468
:103010007A7202FB03F394FBF3F318460C37BD46B8
:1030200090BD00BF283DFF1F0000704290B583B0E7
:1030300000AF78607B689C030A4B1B6819460A48FE
:1030400003F070FD0346184603F094FE03464FF468
:103050007A5202FB03F394FBF3F318460C37BD4698
:1030600090BD00BF283DFF1F0000704180B582B0B9
:1030700000AF78607B681B04184603F04BFC0246E7
:103080000C4B1B681946104603F098FC0346184683
:1030900002F0FCFF4FF00002074B03F079F9024603
:1030A0000B461046194603F0E3FA03461846083764
:1030B000BD4680BD283DFF1F0040CF4090B583B086
:1030C00000AF78607B689C030A4B1B6819460A486E
:1030D00003F028FD0346184603F04CFE03464FF468
:1030E0007A5202FB03F394FBF3F318460C37BD4608
:1030F00090BD00BF283DFF1F0000704180B582B029
:1031000000AF78600B4B1B6819460B4803F00AFDB3
:103110000346184603F02EFE02467B6802FB03F3CB
:103120004FF47A5202FB03F39B1318460837BD464F
:1031300080BD00BF283DFF1F0000704180B582B0F8
:1031400000AF7860786803F0E5FB0346184602F0AC
:103150009DFF4FF000020B4B03F01AF902460B469D
:10316000104619464FF00002074B02F0E7FF0246F7
:103170000B461046194603F07BFA034618460837FB
:10318000BD4680BD000039400000E04080B582B0FF
:1031900000AF7860786802F079FF4FF000020B4BC7
:1031A00003F0F6F802460B46104619464FF00002AF
:1031B000074B02F0C3FF02460B461046194603F0C8
:1031C00057FA034618460837BD4680BD00804B407D
:1031D0000000B04080B582B000AF7860786802F03F
:1031E00055FF4FF000020B4B03F0D2F802460B469E
:1031F000104619464FF00002074B02F09FFF0246AF
:103200000B461046194603F033FA034618460837B2
:10321000BD4680BD000039400000E04080B400AFF2
:10322000044B9B6B43F08043024A936300BFBD464F
:1032300080BC70472C3DFF1F80B400AF034B0022C1
:103240009A6300BFBD4680BC704700BF2C3DFF1F86
:1032500080B483B000AF78607B689AB2034B1A8069
:1032600000BF0C37BD4680BC704700BF2005FF1F64
:1032700080B500AF514B1B68514A93614F4B5B685F
:103280004F4AD3614D4B9B684E4A53604B4B9B68F2
:103290004D4A5360494B9B69494A53614B4B1B78DC
:1032A0005BB2002B1CDB494B1B780133DAB2474B76
:1032B0001A70434B9A69464B1B681344444A136087
:1032C0003F4BDA69434B1B681344424A13603C4B43
:1032D0005A69414B1B6813443F4A136000236BE05B
:1032E0003B4B1B68DB11364A93613A4B1B68DB1181
:1032F000334AD361384B1B68DB11314A5361314B80
:103300005B681B032F4AD3602F4B5B681B032E4A5D
:10331000D360324B5B681B03304AD360294B5B6838
:10332000274A53622E4BD3F884301846FFF79EFE8F
:1033300003462B4AC2F88430294B9B6E1846FFF790
:10334000FDFE0346264A9366254BD3F88430DA0304
:10335000234BD3F8803092FBF3F3194AC2F89C3028
:103360001F4B9B6EDA031E4B5B6F92FBF3F3144A09
:10337000C2F894301A4B9B6EDA03194B9B6F92FB89
:10338000F3F30F4AC2F89830114B00221A60114B28
:1033900000221A60104B00221A600C4B00221A7097
:1033A000074B9B6B43F08043054A93630D4B1B68AF
:1033B0009AB20D4B1A800123184680BD0005FF1FED
:1033C0002C3DFF1F683FFF1F783FFF1F3505FF1F84
:1033D0003805FF1F3C05FF1F4005FF1F883FFF1FEB
:1033E000403EFF1F7C44FF1F2005FF1F80B584B0B7
:1033F00004AF002140F6A66001F0B0FF174B039325
:10340000174B0293174B0193174B0093174B184A16
:103410001849194801F018FD40F2DC50FFF706FE8C
:103420000346164A136541F25040FFF7FFFD03467D
:10343000124AC2F8B4304FF4E160FFF7F7FD0346DB
:103440000E4AC2F8B8304FF49670FFF7CFFD03462E
:103450000B4A936100BFBD4680BD00BF00007A46A5
:103460000000C84100005C4223DB793E8315A73B86
:103470006DE77B3F68E81F393D0AD73D403EFF1F9F
:10348000C83FFF1F80B588B004AFF860B9607A60AC
:103490003B600A4B03930A4B02930A4B01930A4B7E
:1034A00000937B68094AB968F86801F0CDFC084AC6
:1034B0003B68136000BF1037BD4680BD00007A46F0
:1034C0000000C84100005C4223DB793E6DE77B3F92
:1034D000283DFF1F80B500AF644B5B6B052B03D00D
:1034E000624B5B6B042B5DD1604B1B6B052B03D0D8
:1034F0005E4B1B6B042B18D15C4B0022A3F84220BF
:103500005B4B00221A605B4B00221A605A4B1B680F
:10351000584A9360594B00221A60594B1B68574A0E
:103520009360584B00221A60A1E1FFF7BFFC564B95
:103530000022DA60554B0022DA60554B0022DA6037
:10354000544B0022DA60544B0022DA60534B0022C5
:10355000DA60534B0022DA605249534801F0CEFE44
:1035600001F03EFD514B00225A66504B00221A6674
:103570004E4B0022C3F8CC203C4B0022A3F8442041
:103580004A4B0022C3F8C020494B1B781A46474BD0
:10359000C3F8D020474B1B68444AC2F8C4303D4BA7
:1035A0000022DA60314B5B6B032B40F09080424B82
:1035B0001B889BB2B3F5966F05D22C4B9B6B43F0E7
:1035C00080432A4A93633D4B1B780133DAB23B4B6D
:1035D0001A703A4B1B781A46344BD3F8D0309A42C3
:1035E00075DB364B00221A70334B1B889BB21A4690
:1035F0002E4BD3F894309A4217DD2C4BD3F89430ED
:1036000001332A4AC2F894302B4B1B889BB21A46CE
:10361000264BD3F894309A4259DA274B1B889BB239
:103620001A46224BC3F8942051E0234B1B889BB2CF
:103630001A461E4BD3F894309A4241DA1B4BD3F80A
:103640009430013B194AC2F894301B4B1B889BB243
:103650001A46164BD3F894309A4238DD164B1B8825
:103660009BB21A46114BC3F8942030E02C3DFF1F4B
:10367000C83FFF1FF03FFF1F8444FF1F4040FF1F54
:103680008844FF1F1840FF1F483FFF1F383FFF1FA0
:10369000283FFF1F183FFF1F583FFF1FA83FFF1F76
:1036A000983FFF1F23DB793E9A99593F403EFF1F09
:1036B0008044FF1F9844FF1F2005FF1F4405FF1F84
:1036C0006B4B1B889BB21A466A4BC3F894206A4B1B
:1036D0005B6B002B07D1684B00229A87664B012257
:1036E0005A63FFF7AEFB644B5B6B012B3CD1624B23
:1036F000B3F942309BB201339BB21AB25E4BA3F8CE
:1037000042205D4BB3F942301A465A4BDB6F9A4266
:1037100006DD594B0022A3F84220574B02225A6380
:10372000544BDB6803F00103002B1DD0534B1B6887
:10373000504AC2F894304F4BD3F894301846FFF7F4
:10374000BDFC03464B4AC2F888304A4BD3F8882068
:103750004B4B5B68D31A4B4A53614A48FFF718FB3F
:10376000484BDB69434A1366434B5B6B022B3DD1ED
:10377000414BB3F942309BB201339BB21AB23E4B7C
:10378000A3F842203C4BB3F942301A46394BD3F8E8
:1037900080309A4206DD384B0022A3F84220364B97
:1037A00003225A63334BDB6803F00103002B1DD067
:1037B000324B1B682F4AC2F894302E4BD3F894300A
:1037C0001846FFF77BFC03462A4AC2F88830294B8B
:1037D000D3F888202A4B5B68D31A2A4A53612948B8
:1037E000FFF7D6FA274BDB69224A1366224B5B6B45
:1037F000032B21D11F4BDB6803F00103002B18D0F2
:103800001C4BD3F894301846FFF758FC0346194A6E
:10381000C2F88830174BD3F88820194B5B68D31A4D
:10382000184A53611748FFF7B3FA164BDB69114A80
:103830001366154803F0D0FC0F4B5B6B072B02D1CE
:10384000114803F05BFD0C4B5B6A104A13600F4894
:10385000FFF782FA0A4B5B681846FFF74FFC0346F6
:10386000054AC2F8BC30044B5B6B034A136380BD4E
:103870002005FF1F403EFF1F2C3DFF1F7C44FF1F04
:10388000483FFF1FC83FFF1F0C06FF1F683FFF1F79
:1038900090B58DB004AF0446084611461A4623463B
:1038A000FB800346BB800B467B8013463B807D4BF1
:1038B0001B6801337B4A136001F0D2F9BB887A4A56
:1038C00013607B88784A53603B88774A93603B8ECD
:1038D000754AD360BB8E744A5361FB88724A936108
:1038E000724B1B78002B00F06283FA88704B5B6987
:1038F000D31A1B016F4A13606E48FFF72DFA6C4B09
:103900009A69BB88D31A1B01694A1367684BDA6945
:103910007B88D31A1B01664A5367654B1A6F644B49
:103920005B6F13445B42624A93673B88604A536211
:103930005F4B186F5E4B596F5F4B604AFFF7ECFAB5
:103940005B4BD3F884005A4BD3F88810584BB3F92B
:103950003E301A46564BB3F940301C46584B019343
:10396000584B00932346FFF7F1FA514BD3F88C30B4
:10397000554A13605448FFF7EFF94D4BD3F8903098
:10398000524A13605148FFF7E7F9514B5A6E4E4BBC
:103990005B68D31A4F4A53614E48FFF7F9F94D4B14
:1039A000DB694C4AD26903FB02F24B4B9B1A184667
:1039B00002F0B0FF03464FF08E41184603F0B2F814
:1039C0000346FB614FF08E41F86903F0ABF8034604
:1039D000FB614FF00001F86903F098F90346002BF2
:1039E00013D00023BB613A4B1A6E384B5B68D21A76
:1039F0002F4BD3F8C4303649D1F8CC1001FB03F378
:103A00001B12D31A354A536129E0314B1A6E2F4BE2
:103A10005B68D21A264BD3F8C4302D49D1F8CC10AC
:103A200001FB03F31B12D31A2C4A5361FB697B6120
:103A300007F10C033B614FF00001786903F070F966
:103A40000346002B06D0786929F0A6FA02463B69A6
:103A50001A6004E03B694FF000021A6000BFFB6887
:103A60004FF08E41184602F0A9FF0346184603F0B6
:103A700081F90346194AD360184BDB685B42174A49
:103A800013611648FFF784F9114BD3F88C30002BE3
:103A900026DD124BDB69064AD3640E4BDB69044A10
:103AA000936427E01C05FF1F0005FF1F2C05FF1F67
:103AB0002C3DFF1FB83FFF1FB43DFF1FB03DFF1F50
:103AC000BC3DFF1FB83DFF1F983FFF1FA83FFF1FD2
:103AD000403EFF1FF03FFF1F5C8FC2394040FF1F79
:103AE0008E4BDB6CDB038E4A13608C4B9B6CDB03D1
:103AF0008C4A1360894B5B6B052B0CBF01230023A1
:103B0000DAB2864B5B6B042B0CBF01230023DBB2C4
:103B10001343DBB2002B0BD0834B00221A60814B86
:103B200000221A607E4B00221A60804B00221A602D
:103B30007A4B5B6B012B31D1784BD3F88400774BF8
:103B4000D3F88810754B1A6D744B5C6D784B5B68BD
:103B50000093234601F05CFA01F036FB03461A4657
:103B60006E4B9A87734B1B686F4AD3606B4BD3F8CD
:103B700090306A4AD2F8902003FB02F26E4BDB6E63
:103B80006D49C96E01FB03F39A4240F3E280634B37
:103B90009B6B43F48043614A9363DAE05F4B5B6B5A
:103BA000022B22D15D4BD3F884005C4BD3F88810F4
:103BB0005A4B1A6D594B5C6D5D4B5B680093234605
:103BC00001F026FA01F000FB03461A46534B9A8790
:103BD000554BDA68594B1B689A4280F2BA80524BB7
:103BE000DB680133504AD360B3E04C4B5B6B032B73
:103BF00040F0A880494BD3F88400484BD3F8881094
:103C0000464B1A6D454B5C6D494B5B6800932346F0
:103C100001F0FEF901F0D8FA03469AB23F4BB3F92E
:103C200044309BB2D31A9BB21AB23C4B9A873B4B9F
:103C3000B3F944301A46404BD3F8D4309A420ADAEA
:103C4000364BB3F944309BB201339BB21AB2334BBB
:103C5000A3F8442012E0314BB3F944301A46364BF6
:103C6000D3F8D4309A4209DD2C4BB3F944309BB2DF
:103C7000013B9BB21AB2294BA3F8442001F0D4FABD
:103C80002D4BD3F8C030012B44D12B4BD3F89430BB
:103C900040F6B83293422EDD284B1B68A3F1630235
:103CA000214BDB699A4211DC234B5B6E013B224ABC
:103CB0005366214B5A6E204BD3F8C4309A4223DA14
:103CC0001D4BD3F8C4301C4A53661DE0164BDA690D
:103CD0001A4B1B68A3F57A739A4215DA164B5B6E82
:103CE0000133154A5366144B5B6E002B0CDD124BEF
:103CF00000225A6608E0104B5B6E002B04DA0E4B74
:103D00005B6E01330C4A53660B4B5B6EDB1018463F
:103D100001F07AFA0A4803F011FA1AE02C3DFF1F6D
:103D20004040FF1FF03FFF1FC83FFF1F1840FF1F0D
:103D3000683FFF1F9C44FF1F403EFF1FA044FF1F22
:103D40000C06FF1F9C4B5B6B072B02D19B4803F0BB
:103D500039FA9B4BD3F8C030002B0ED1984B5B6ED9
:103D6000002B04DA964B5B6E0133954A5366944BF5
:103D70005B6EDB10184601F047FA8F4BB3F93C300D
:103D80009BB2DB099BB21A468E4B33F812301AB243
:103D9000894BDA87884BB3F93C309BB203F58043FB
:103DA0009BB2DB099BB21A46864B33F812301AB22B
:103DB000814BA3F84020804B986C7F4BD96C7E4B95
:103DC000B3F93E207C4BB3F940307F4C01947F4CDB
:103DD0000094FFF7DFF8784B186D774B596D07F1BA
:103DE0000803029307F10A030193794B0093794B7F
:103DF000794A01F0DBFA03461A466F4B83F86C20D0
:103E00006D4BB3F95830C3F56A63063373493A8F83
:103E10001846931C9B010B4404331860664BB3F99E
:103E2000583003F6A6616D4A3B8F9B0113448833DB
:103E30001960614BB3F95C30C3F56A6306336749B7
:103E4000BA8F1846931C9B010B44043318605A4BDD
:103E5000B3F95C3003F6A661604ABB8F9B01134443
:103E600088331960544BB3F96030C3F56A63063385
:103E70005A49B7F840201846931C9B010B44043361
:103E800018604D4BB3F9603003F6A661534AB7F89A
:103E900040309B01134488331960504B5B694F4A93
:103EA00023F0010353614D4B5B694C4A43F001031E
:103EB0005361414BB3F958309BB2C3F5EA63033306
:103EC0009BB21AB23E4BA3F898203B4BB3F95C303F
:103ED0009BB2C3F5EA6303339BB21AB2384BA3F823
:103EE0009A20354BB3F960309BB2C3F5EA630333D4
:103EF0009BB21AB2324BA3F89C202F4BB3F95A3025
:103F00009BB2C3F5EA6303339BB21AB22C4BA3F8FE
:103F10009E20294BB3F95E309BB2C3F5EA630333AD
:103F20009BB21AB2264BA3F8A020234BB3F9623000
:103F30009BB2C3F5EA6303339BB21AB2204BA3F8DA
:103F4000A2201D4B1A6A1C4B5B69D31A244A1360CA
:103F50002348FEF701FF01F043F90346214A1360AD
:103F60002048FEF7F9FE1F4B5B681F4A13601E488E
:103F7000FEF7F2FE1C4B5B681C4A13601B48FEF701
:103F8000EBFE1A4B5B681A4A13601948FEF7E4FE11
:103F9000154B5A68154B5B68D31A074AC2F8C430F0
:103FA000144B5B69144A13601348FEF7D5FE00BF3B
:103FB0002437BD4690BD00BF2C3DFF1F0C06FF1FE0
:103FC000403EFF1F6840FF1F803DFF1F7C3DFF1FDD
:103FD0008C3DFF1F883DFF1F843DFF1F0090044064
:103FE000583FFF1F483FFF1F383FFF1F283FFF1F5D
:103FF000183FFF1F0005FF1F883FFF1F80B485B0DB
:1040000000AFF860B9607A60FB70FB68062B00F2C5
:10401000DC8001A252F823F0354003003540030054
:1040200035400300C140030069410300CB41030058
:10403000C14003006D4B1B69BA689A4207DA6C4BAA
:10404000D3F8C83001336A4AC2F8C83010E0674B71
:104050005B69BA689A4207DD654BD3F8C830013B0B
:10406000634AC2F8C83003E0614B0022C3F8C8209D
:104070005F4BD3F8C8205D4B5B6A9A420BDD5C4B0B
:104080000022C3F8C8205A4B9B6B43F00103584AE7
:1040900093630123A4E0564BD3F8C820534B5B6ACB
:1040A0005B429A4280F29680514B0022C3F8C820AE
:1040B0004F4B9B6B43F002034D4A936301238FE008
:1040C0004A4B9B69BA689A4207DA494BD3F8C83021
:1040D0000133474AC2F8C83010E0444BDB69BA6884
:1040E0009A4207DD424BD3F8C830013B404AC2F840
:1040F000C83003E03E4B0022C3F8C8203C4BD3F845
:10410000C8203A4B1B6A9A420BDD394B0022C3F898
:10411000C820374B9B6B43F00103354A936301235F
:104120005EE0334BD3F8C820304B1B6A5B429A42A7
:104130000BDA2F4B0022C3F8C8202D4B9B6B43F0AA
:1041400002032B4A936301234AE0FB78002B43D000
:104150007B6813F1A00F3FDA254B9B6B43F0800384
:10416000234A936301233BE0FB78002B36D01F4B9F
:104170005B69BA689A4213DA1C4B1B69BA689A42A7
:104180000EDD7B6813F1030F0ADB7B68032B07DC72
:10419000174BD3F8D4300133154AC2F8D43003E0BA
:1041A000134B0022C3F8D420114BD3F8D430322B58
:1041B00014DD0F4B9B6B23F080030D4A93630C4B74
:1041C0000022C3F8D42001230AE0094B0022C3F8DF
:1041D000C82004E000BF02E000BF00E000BF0023F1
:1041E00018461437BD4680BC704700BF403EFF1FD5
:1041F0002C3DFF1F80B483B000AF786039607B68CE
:10420000062B8CBF01230023DBB2002B53D10122EC
:104210007B6802FA03F303F05903002B14BF012358
:104220000023DBB2002B46D0294BD3F8AC303A68E0
:104230009A4207DB274BD3F8D8300133254AC2F81E
:10424000D83011E0224BD3F8B0303A689A4207DCFC
:10425000204BD3F8D830013B1E4AC2F8D83003E0D7
:104260001C4B0022C3F8D8201A4BD3F8D820184B87
:104270001B6B9A420BDD174B0022C3F8D820154B5D
:104280009B6B43F48073134A936301231AE0114B31
:10429000D3F8D8200E4B1B6B5B429A4210DA0D4BC1
:1042A0000022C3F8D8200B4B9B6B43F40073094AE0
:1042B0009363012306E0074B0022C3F8D82000E0F7
:1042C00000BF002318460C37BD4680BC704700BFB6
:1042D000403EFF1F2C3DFF1F80B485B000AFF8604B
:1042E000B9607A60FB68032B02D0FB68062B71D1A2
:1042F000854BDB6BBA689A4205DC834BDB6B5B4218
:10430000BA689A4207DA814BD3F8E03001337F4A2A
:10431000C2F8E03003E07D4B0022C3F8E0207A4B86
:10432000DB6B7A689A4205DC774BDB6B5B427A6821
:104330009A4207DA754BD3F8E4300133734AC2F876
:10434000E43003E0714B0022C3F8E420BA687B68D4
:104350001A446D4BDB6B9A4207DCBA687B681A44DF
:10436000694BDB6B5B429A4207DA684BD3F8E83063
:104370000133664AC2F8E83003E0644B0022C3F818
:10438000E820624BD3F8E0205F4B1B6C9A420DDCB7
:104390005E4BD3F8E4205C4B1B6C9A4206DC5B4B13
:1043A000D3F8E820584B1B6C9A4220DD574B002273
:1043B000C3F8E020554B0022C3F8E420534B002201
:1043C000C3F8E820514B9B6B43F010034F4A9363B3
:1043D000012394E04D4B0022C3F8E0204B4B002218
:1043E000C3F8E420494B0022C3F8E82000E000BFF6
:1043F000FB68032B02D0FB68062B71D1424B5B6C30
:10440000BA689A420DDA404B5B6C5B42BA689A42DA
:1044100007DD3E4BD3F8EC3001333C4AC2F8EC30B8
:1044200003E03A4B0022C3F8EC20374B5B6C7A6810
:104430009A420DDA344B5B6C5B427A689A4207DD34
:10444000324BD3F8F0300133304AC2F8F03003E099
:104450002E4B0022C3F8F020BA687B681A442A4B1E
:104460005B6C9A420FDABA687B681A44264B5B6C25
:104470005B429A4207DD254BD3F8F4300133234ADF
:10448000C2F8F43003E0214B0022C3F8F4201F4BA4
:10449000D3F8EC201C4B9B6C9A420DDC1B4BD3F8E1
:1044A000F020194B9B6C9A4206DC184BD3F8F42091
:1044B000154B9B6C9A4220DD144B0022C3F8EC2074
:1044C000124B0022C3F8F020104B0022C3F8F42056
:1044D0000E4B9B6B43F008030C4A936301230EE0E1
:1044E0000A4B0022C3F8EC20084B0022C3F8F0204E
:1044F000064B0022C3F8F42000E000BF002318465A
:104500001437BD4680BC7047403EFF1F2C3DFF1F47
:1045100080B485B000AFF860B9607A603B60FB683A
:10452000032B42D1274B1B6DBA689A422BDA254BDD
:10453000DB6C7A689A421FDC224BDB6C5B427A6848
:104540009A4219DB1F4BDB6C3A689A4214DC1D4B14
:10455000DB6C5B423A689A420EDB7A683B681A442D
:10456000184BDB6C9A4207DC7A683B681A44154B9F
:10457000DB6C5B429A4206DA134BD3F8F830013316
:10458000114AC2F8F830104BD3F8F8200D4B5B6D90
:104590009A420FDD0C4B9B6B43F400530A4A936322
:1045A000094B0022C3F8F82004E0074B0022C3F8AF
:1045B000F82000E000BF002318461437BD4680BC39
:1045C000704700BF403EFF1F2C3DFF1F80B485B0E9
:1045D00000AFF860B9607A60FB68032B54D13D4BA3
:1045E000D3F8B430BA689A4207DD3B4BD3F8FC30BD
:1045F0000133394AC2F8FC3011E0364BD3F8B830F9
:10460000BA689A4207DA344BD3F8FC30013B324A9D
:10461000C2F8FC3003E0304B0022C3F8FC202E4BE4
:10462000D3F8FC202B4BD3F8BC309A4211DD2A4B37
:104630000022C3F8FC20284B9B6B43F48063264A7E
:104640009363254B9B6B23F40063234A93630123FD
:104650003AE0214BD3F8FC201E4BD3F8BC305B4230
:104660009A4216DA1C4B0022C3F8FC201A4B9B6BB3
:1046700043F40063184A9363174B9B6B23F48063E6
:10468000154A936301231FE0134B0022C3F8FC205B
:1046900000E000BF104BD3F80831BA689A4203DD3E
:1046A0000D4ABB68C2F808310B4BD3F80C31BA681D
:1046B0009A4204DB084BD3F80C31002B03D1064A95
:1046C000BB68C2F80C31002318461437BD4680BCC5
:1046D000704700BF403EFF1F2C3DFF1FB0B582B0AA
:1046E00000AF786039607B68032B3CD12A4BD3F84C
:1046F0000821294BD3F80C31D31A184601F0B4FC29
:1047000004460D46254B1B889BB2184601F0ACFCB5
:104710001FA3D3E9002301F011FD02460B462046FA
:10472000294601F09BFF0346002B07D01A4BD3F814
:1047300010310133184AC2F8103103E0164B002241
:10474000C3F81021144BD3F8FC30032B10DD124BAF
:104750000022C3F81021104B9B6B43F400630E4AF8
:10476000936301230EE00C4B0022C3F8102100E0FC
:1047700000BF094B0022C3F80821074B0022C3F8F1
:104780000C21002318460837BD46B0BDAFF30080AA
:104790009A9999999999E93F2C3DFF1F2005FF1F90
:1047A00080B483B000AF786039607B68032B17D189
:1047B000104B9B6D3A689A4207DB0F4B9B6B43F0A3
:1047C00020030D4A936301230EE03B68002B09D1BF
:1047D000094B9B6B23F02003074A9363012303E0FB
:1047E00000BF00E000BF002318460C37BD4680BC68
:1047F000704700BF403EFF1F2C3DFF1F80B483B0B9
:1048000000AF7860054B9A6B7B681343034A936350
:1048100000BF0C37BD4680BC704700BF2C3DFF1F5A
:1048200080B485B000AF494B9B6BBB60474B5B6B63
:10483000FB60464B5B6B072B7BD801A252F823F041
:104840006148030033490300AF480300AF48030049
:10485000034903003349030033490300AF48030011
:10486000BA683B4B1340002B02D00423FB6062E08C
:10487000BA68384B1340002B02D00423FB605AE087
:10488000BB6803F02003002B55D0304BD3F8003128
:1048900001332E4AC2F800312C4BD3F80031042BDF
:1048A00002DD0423FB6046E00023FB6043E0BA68BE
:1048B000294B1340002B02D00423FB603DE0BA6873
:1048C000244B1340002B02D00423FB6035E0BB686F
:1048D00003F02003002B02D00023FB602DE0BB6817
:1048E00003F48053002B28D07B68002B02D00423D4
:1048F000FB6022E0154B9B6B23F48053134A9363B8
:104900001BE0BA68154B1340002B02D00423FB6058
:1049100015E0BB6803F08043002B02D00423FB604A
:104920000DE0BB6803F08003002B08D10023FB607F
:1049300005E000BF04E000BF02E000BF00E000BFF0
:10494000FB6818461437BD4680BC70472C3DFF1FDE
:104950004B630080800000405B6F00805A600080E5
:1049600080B584B000AFF860B9603B601346FB804F
:10497000F868FEF70BFC03460E4A1361B868FEF7B1
:1049800005FC03460B4A5361FB880A4A53623868A8
:10499000FEF7FCFB0346074A9361B869FEF7F6FB96
:1049A0000346044AD361BB8B024A136200BF10372F
:1049B000BD4680BD403EFF1F80B584B000AFF860AB
:1049C0007A601A460B467B8113463B81F868FEF7F6
:1049D00001FC0346084AD3637B89074A136478685D
:1049E000FEF7F8FB0346044A53643B89024A93648A
:1049F00000BF1037BD4680BD403EFF1F80B582B06E
:104A000000AF0346FB800B46BB8013467B80BB8810
:104A10001846FEF70BFB0346094AC2F8B430FB8880
:104A20001846FEF703FB0346054AC2F8B8307B88F8
:104A3000034AC2F8BC3000BF0837BD4680BD00BF86
:104A4000403EFF1F80B582B000AF03463960FB8057
:104A50001346BB80FB881846FEF7E8FA0346074A70
:104A600013653868FEF7B6FB0346044AD364BB8877
:104A7000024A536500BF0837BD4680BD403EFF1F58
:104A800080B582B000AF0346FB80FB880C4A136000
:104A90000B4B1B68184601F03DFF034609491846B9
:104AA00001F08CFF0346184602F08AF903469BB2D8
:104AB0001A46054BDA6600BF0837BD4680BD00BF09
:104AC0009C44FF1F3333933F403EFF1F80B483B0AD
:104AD00000AF0346FB80044B1B68044AD36000BF51
:104AE0000C37BD4680BC7047A044FF1FC83FFF1F66
:104AF00080B582B000AF78607868FEF76BFB034644
:104B0000034AC2F8C43000BF0837BD4680BD00BFAD
:104B1000403EFF1F80B483B000AF0346FB71044AE0
:104B2000FB79137000BF0C37BD4680BC704700BFD7
:104B30003005FF1F80B483B000AF0346FB71044A09
:104B4000FB79137000BF0C37BD4680BC704700BFB7
:104B50003105FF1F80B483B000AF0346FB71044AE8
:104B6000FB79137000BF0C37BD4680BC704700BF97
:104B70003205FF1F80B483B000AF0346FB71044AC7
:104B8000FB79137000BF0C37BD4680BC704700BF77
:104B90003305FF1F80B483B000AF0346FB71044AA6
:104BA000FB79137000BF0C37BD4680BC704700BF57
:104BB0003405FF1F80B483B000AF0346FB71FB795F
:104BC0001A46044BC3F8C02000BF0C37BD4680BC5A
:104BD000704700BF403EFF1F80B500AF194B1B78E8
:104BE000002B0CD0184B586B184B5968174B1A6890
:104BF000164B5B68D21A164B1B78FFF7FFF9154B63
:104C00001B78002B08D0104B5B6B134A51680E4A7F
:104C1000926A1846FFF7DAFC104B1B78002B09D07C
:104C2000094B586B0C4B5968074B1A6F064B5B6F5F
:104C3000FFF76EFCFFF7F4FD0346034A536300BF22
:104C400080BD00BF3005FF1F2C3DFF1F683FFF1FC9
:104C50003105FF1F3305FF1F483FFF1F3405FF1FAE
:104C600080B500AF074B1B78002B08D0064B5B6B61
:104C7000054A116F044A526F1846FFF72DFB00BF1B
:104C800080BD00BF3205FF1F2C3DFF1F80B500AF68
:104C90000B4B5B6B032B0BD10A4B1B78002B07D004
:104CA000074B5B6B084A526811461846FFF716FD22
:104CB000FFF7B6FD0346024A536300BF80BD00BF45
:104CC0002C3DFF1F3305FF1F483FFF1F80B400AF7F
:104CD000034B9B6B23F07F431846BD4680BC704757
:104CE0002C3DFF1F80B400AF034B4FF080429A630E
:104CF00000BFBD4680BC70472C3DFF1F80B500AF94
:104D0000034B5B681846FEF7F9F90346184680BD69
:104D1000183FFF1F80B483B000AF78607B68DA680B
:104D20007B6819687B685B68CB1A7968896801FBC6
:104D300003F31A447B68DA607B68DB681A137B68CC
:104D40005A6000BF0C37BD4680BC704780B485B048
:104D500000AF78607B685B697A68926802FB03F356
:104D6000FB607B685B697A68526803FB02F27B68D0
:104D70001B681344FA681344BB607B685B6A7A68FB
:104D8000126A02FB03F3BA681344BB60BB68DA1310
:104D90007B68DA617B68DA697B68DB689A420EDDE2
:104DA0007B68DA687B68DA617B685B69002B21DAF3
:104DB0007B681A68FB681A447B681A601AE07B6893
:104DC000DA697B681B699A420EDA7B681A697B682C
:104DD000DA617B685B69002B0CDD7B681A68FB6815
:104DE0001A447B681A6005E07B681A68FB681A44FD
:104DF0007B681A6000BF1437BD4680BC704780B422
:104E000085B000AF786039600F23FB6008E07A68F6
:104E1000FB6842FA03F3002B06D0FB680133FB600A
:104E2000FB681E2BF3DD00E000BFFB68C3F11E0230
:104E30003B681A60FB680F3B7A6842FA03F3184636
:104E40001437BD4680BC704780B588B000AFF860AD
:104E5000B9607A603B60396BF86801F0AFFD0346DA
:104E6000F96A184601F05EFE03464FF08E4118467F
:104E700001F0A4FD0346184601F07CFF0346FB61E8
:104E80005049F869FFF7BBFF03464F4A1360396B7F
:104E9000B86801F093FD0346F96A184601F042FE36
:104EA0000346796B184601F089FD03464FF08E41A9
:104EB000184601F083FD0346184601F05BFF0346E8
:104EC000BB614249B869FFF79AFF03463E4A536007
:104ED0003F49786801F026FE03464FF08E411846A0
:104EE00001F06CFD0346184601F044FF0346364AC4
:104EF0005361354B01221A613968F86A01F012FEDC
:104F000003464FF08F41184601F058FD03464FF01D
:104F10008041184601F006FE03462E49184601F06E
:104F200001FE0346796B184601F0FCFD0346184666
:104F300001F020FF03467B6127497869FFF75FFF97
:104F40000346214A93604FF08B41B86A01F036FD69
:104F50000346184601F00EFF03461B4A13644FF048
:104F60008B41B86A01F02AFD0346184601F002FFA2
:104F70000346154A1365144B0022A3F86020124B18
:104F8000B3F960309BB2DB099BB21A46134B33F87E
:104F900012301BB21A460C4B1A630B4BB3F960303C
:104FA0009BB203F580439BB2DB099BB21A460B4BC5
:104FB00033F812301BB21A46034B5A6300BF203736
:104FC000BD4680BD6805FF1F4C05FF1F6405FF1F20
:104FD0002DB2DD3FDB0F4940A405FF1F6840FF1FD6
:104FE00080B400AF094B00225A64084B00225A6576
:104FF000064B00229A62054B0022DA62034B002224
:10500000A3F8602000BFBD4680BC70474C05FF1F61
:1050100080B586B000AFF860B9607A603B60664BDF
:105020005B693A6A02FB03F31B13634A526E02FB8D
:1050300003F3DB137B617B687A6902FB03F3DA130A
:105040005D4B1B68F96803FB01F15B4BDB6941FABF
:1050500003F3D21A584B5B685749896AF868411ABA
:1050600003FB01F1544B9B6941FA03F3D31A524AF3
:1050700013623B687A6902FB03F3DA134E4B1B6839
:10508000B96803FB01F14C4BDB6941FA03F3D21A17
:10509000494B5B684849C96AB868411A03FB01F18A
:1050A000454B9B6941FA03F3D31A434A5362424A80
:1050B000FB689362404ABB68D3623F4BB3F96030F0
:1050C0009BB2DB099BB21A463C4B33F812301BB241
:1050D0001A46394B1A63384BB3F960309BB203F56B
:1050E00080439BB2DB099BB21A46344B33F8123033
:1050F0001BB21A46304B5A632F4B1B6A2E4A526B17
:1051000003FB02F22C4B5B6A2B49096B01FB03F397
:105110001344DB13284A9363274B5B6A264A526B7E
:1051200003FB02F2244B1B6A2349096B01FB03F3C7
:10513000D31ADB13204A93642148FFF7EBFD214883
:10514000FFF7E8FD1C4BDB6C002B12DD1A4B9A6855
:10515000194BDB681344184AD16C174AD26B8A1A70
:1051600003FB02F2144B9B6D42FA03F3124AD36520
:1051700011E0114B9A68104BDB6813440E4AD16C56
:105180000D4AD26B0A4403FB02F20B4B9B6D42FAB1
:1051900003F3094AD365084BB3F960309AB2064B62
:1051A000DB6D9BB213449BB21AB2034BA3F8602091
:1051B00000BF1837BD4680BD4C05FF1F6840FF1F6C
:1051C0008405FF1F9405FF1F80B400AF034BB3F9A4
:1051D00060301846BD4680BC704700BF4C05FF1FBD
:1051E00080B400AF024BDB6D1846BD4680BC7047F3
:1051F0004C05FF1F80B400AF024BDB6C1846BD4668
:1052000080BC70474C05FF1F80B483B000AF78604E
:105210007B685B42034AD36000BF0C37BD4680BC4D
:10522000704700BF4C05FF1F80B400AF2D4B1B78AB
:105230000133DAB22B4B1A702A4B1A782A4B1B789F
:105240009A424BD3274B00221A70284B5B6E0133D6
:10525000264A5366254B5A6E254B1B689A4203DD3E
:10526000234B1B68214A5366204B9B6E01331F4A18
:1052700093661E4B9B6E322B30DD1C4B00229A66D0
:105280001A4B1A6C1B4B1B689A4205DA174B1B6CA6
:105290000133164A13640AE0144B1A6C154B1B6851
:1052A0009A4204DD114B1B6C013B104A13640F4BF7
:1052B0001A6D114B1B689A4205DA0C4B1B6D0133BA
:1052C0000A4A13650AE0094B1A6D0B4B1B689A4298
:1052D00004DD064B1B6D013B044A136500BFBD4650
:1052E00080BC7047FC05FF1F6844FF1F4C05FF1F73
:1052F0007444FF1F6C44FF1F7044FF1F80B582B0D1
:1053000000AF786039604FF08E41786801F056FB4D
:105310000346184601F02EFD03460F4A53664FF030
:105320008B41386801F04AFB0346184601F022FD24
:105330000346094A13644FF08B41386801F03EFB85
:105340000346184601F016FD0346034A136500BFE5
:105350000837BD4680BD00BF4C05FF1F80B483B039
:1053600000AF03460A46FB801346BB80054AFB8814
:105370001380054ABB88138000BF0C37BD4680BC34
:10538000704700BF7A44FF1F7844FF1F80B483B08A
:1053900000AF0346FB80044AFB88138000BF0C3734
:1053A000BD4680BC704700BF7844FF1F80B48DB0FD
:1053B00000AFF860B9607A603B60BB683B62BB6875
:1053C0005B10FB85FB6846F6DA6202FB03F3DB1336
:1053D000BB85B7F92C20B7F92E30D31AFB61B7F98A
:1053E0002C305A42B7F92E30D31ABB613B6A002BDE
:1053F000C0F2EE81FB69002BC0F2A080012387F888
:105400002730A04BB3F900301A463B6A02FB03F386
:10541000DB13FB859B4BB3F900301A46FB6902FB9B
:1054200003F3DB13BB85984BB3F90030B7F92E209B
:105430009A4202DBFB8D7B850CE0FB8D5B009AB210
:10544000914BB3F900309BB2D31A9BB27B858E4B44
:105450001B88FB858C4BB3F90030B7F92C209A429E
:1054600002DBBB8D3B850CE0BB8D5B009AB2864BAB
:10547000B3F900309BB2D31A9BB23B85824B1B8899
:10548000BB85804BB3F900301A46B7F92E30D21ADB
:10549000B7F92C30D31A5B10FB827A4BB3F900308A
:1054A0001A46B7F92A30D21AB7F92830D31A5B1046
:1054B000BB82B7F92E305B101BB29AB2FB8A134441
:1054C0009BB21AB2FB6B1A80FA8AFB8D13449AB214
:1054D000B7F92C305B101BB29BB213449BB21AB2CB
:1054E0003B6C1A80BB6BFA8A1A80FA8AFB8D1344D4
:1054F0009BB21AB23B681A80FA8AFB8D13449AB2A7
:10550000BB8D13449BB21AB27B681A80BB6B02330B
:10551000BA8A1A80BA8A7B8D13449AB23B680233E6
:1055200012B21A80BA8A7B8D13449AB23B8D13440F
:105530009AB27B68023312B21A803CE3BB69002B3B
:10554000C0F2A480032387F827304E4BB3F9003014
:105550001A46BB6902FB03F3DB13FB85494BB3F926
:1055600000301A463B6A02FB03F3DB13BB85464B54
:10557000B3F90030B7F92E209A4202DBFB8D7B8510
:105580000CE0FB8D5B009AB23F4BB3F900309BB24D
:10559000D31A9BB27B853C4B1B88FB853A4BB3F9F6
:1055A0000030B7F92C209A4202DBBB8D3B850CE022
:1055B000BB8D5B009AB2344BB3F900309BB2D31A67
:1055C0009BB23B85304B1B88BB852E4BB3F900301B
:1055D0001A46B7F92E30D21AB7F92C30D31A5B100D
:1055E000FB82284BB3F900301A46B7F92A30D21A99
:1055F000B7F92830D31A5B10BB82B7F92E305B1095
:105600001BB29AB2FB8A13449BB21AB2FB6B1A808C
:10561000FA8AFB8D13449AB2B7F92C305B101BB297
:105620009BB213449BB21AB23B6C1A807B68FA8A15
:105630001A80FA8AFB8D13449BB21AB2BB6B1A8094
:10564000FA8AFB8D13449AB2BB8D13449BB21AB2F3
:105650003B681A807B680233BA8A1A80BA8A7B8DCB
:1056600013449AB2BB6B023312B21A80BA8A7B8D92
:1056700013449AB23B8D13449AB23B68023312B280
:105680001A8098E27A44FF1F7844FF1F022387F8AC
:1056900027306E4BB3F900301A46BB6902FB03F3A7
:1056A0005B42DB13FB85694BB3F900301A46FB699B
:1056B00002FB03F35B42DB13BB85654BB3F90030A0
:1056C000B7F92E209A4202DBFB8D7B850CE0FB8D27
:1056D0005B009AB25E4BB3F900309BB2D31A9BB217
:1056E0007B855B4B1B88FB85594BB3F90030B7F9C1
:1056F0002C209A4202DBBB8D3B850CE0BB8D5B000E
:105700009AB2534BB3F900309BB2D31A9BB23B858C
:105710004F4B1B88BB854D4BB3F900301A46B7F988
:105720002E30D21AB7F92C30D31A5B10FB82474BBC
:10573000B3F900301A46B7F92A30D21AB7F928302F
:10574000D31A5B10BB82B7F92E305B101BB29AB232
:10575000FB8A13449BB21AB2FB6B1A80FA8AFB8D48
:1057600013449AB2B7F92C305B101BB29BB21344AE
:105770009BB21AB23B6C1A80BB6BFA8A1A80FA8A07
:10578000FB8D13449BB21AB27B681A80FA8AFB8D98
:1057900013449AB2BB8D13449BB21AB23B681A8071
:1057A000BB6B0233BA8A1A80BA8A7B8D13449AB2D1
:1057B0007B68023312B21A80BA8A7B8D13449AB284
:1057C0003B8D13449AB23B68023312B21A80F2E165
:1057D000FB69002BC0F24A81BB69002BC0F2A48098
:1057E000052387F82730194BB3F900301A46FB69B7
:1057F00002FB03F3DB13FB85144BB3F900301A46AD
:10580000BB6902FB03F3DB13BB85114BB3F900301B
:10581000B7F92E209A4202DBFB8D7B850CE0FB8DD5
:105820005B009AB20A4BB3F900309BB2D31A9BB219
:105830007B85074B1B88FB85054BB3F90030B7F917
:105840002C209A4206DBBB8D3B8510E07A44FF1F7B
:105850007844FF1FBB8D5B009AB2A04BB3F90030B8
:105860009BB2D31A9BB23B859C4B1B88BB859C4B40
:10587000B3F900301A46B7F92E30D21AB7F92C30E6
:10588000D31A5B10FB82964BB3F900301A46B7F976
:105890002A30D21AB7F92830D31A5B10BB82B7F975
:1058A0002E305B101BB29AB2FB8A13449BB21AB221
:1058B000FB6B1A80FA8AFB8D13449AB2B7F92C302D
:1058C0005B101BB29BB213449BB21AB23B6C1A80A2
:1058D0003B68FA8A1A80FA8AFB8D13449BB21AB28B
:1058E0007B681A80FA8AFB8D13449AB2BB8D1344ED
:1058F0009BB21AB2BB6B1A803B680233BA8A1A8019
:10590000BA8A7B8D13449AB27B68023312B21A8032
:10591000BA8A7B8D13449AB23B8D13449AB2BB6B07
:10592000023312B21A8046E1062387F827306C4B07
:10593000B3F900301A463B6A02FB03F35B42DB1308
:10594000FB85674BB3F900301A46BB6902FB03F3D2
:105950005B42DB13BB85614BB3F90030B7F92E20F6
:105960009A4202DBFB8D7B850CE0FB8D5B009AB2DB
:105970005A4BB3F900309BB2D31A9BB27B85574B7D
:105980001B88FB85554BB3F90030B7F92C209A42A0
:1059900002DBBB8D3B850CE0BB8D5B009AB24F4BAD
:1059A000B3F900309BB2D31A9BB23B854B4B1B889B
:1059B000BB854B4BB3F900301A46B7F92E30D21ADB
:1059C000B7F92C30D31A5B10FB82454BB3F900308A
:1059D0001A46B7F92A30D21AB7F92830D31A5B1011
:1059E000BB82B7F92E305B101BB29AB2FB8A13440C
:1059F0009BB21AB2FB6B1A80FA8AFB8D13449AB2DF
:105A0000B7F92C305B101BB29BB213449BB21AB295
:105A10003B6C1A803B68FA8A1A80FA8AFB8D134421
:105A20009BB21AB2BB6B1A80FA8AFB8D13449AB2EE
:105A3000BB8D13449BB21AB27B681A803B68023359
:105A4000BA8A1A80BA8A7B8D13449AB2BB6B02332E
:105A500012B21A80BA8A7B8D13449AB23B8D1344DA
:105A60009AB27B68023312B21A80A4E0042387F84A
:105A700027301B4BB3F900301A46FB6902FB03F3D6
:105A80005B42DB13FB85164BB3F900301A463B6AC9
:105A900002FB03F35B42DB13BB85104BB3F9003011
:105AA000B7F92E209A4202DBFB8D7B850CE0FB8D43
:105AB0005B009AB2094BB3F900309BB2D31A9BB288
:105AC0007B85064B1B88FB85044BB3F90030B7F987
:105AD0002C209A4206DBBB8D3B8510E07844FF1FEB
:105AE0007A44FF1FBB8D5B009AB2364BB3F900308E
:105AF0009BB2D31A9BB23B85324B1B88BB85324B82
:105B0000B3F900301A46B7F92E30D21AB7F92C3053
:105B1000D31A5B10FB822C4BB3F900301A46B7F94D
:105B20002A30D21AB7F92830D31A5B10BB82B7F9E2
:105B30002E305B101BB29AB2FB8A13449BB21AB28E
:105B4000FB6B1A80FA8AFB8D13449AB2B7F92C309A
:105B50005B101BB29BB213449BB21AB23B6C1A800F
:105B60007B68FA8A1A80FA8AFB8D13449BB21AB2B8
:105B70003B681A80FA8AFB8D13449AB2BB8D13449A
:105B80009BB21AB2BB6B1A807B680233BA8A1A8046
:105B9000BA8A7B8D13449AB23B68023312B21A80E0
:105BA000BA8A7B8D13449AB23B8D13449AB2BB6B75
:105BB000023312B21A8097F8273018463437BD46A0
:105BC00080BC70477844FF1F7A44FF1F80B485B0C3
:105BD00000AFB9607A603B600346FB73FB7B013B1F
:105BE000052B6FD801A252F823F000BF055C03001B
:105BF000255C0300455C0300655C0300855C0300D5
:105C0000A55C0300BB681A013B681A607B681B0136
:105C10005A42FB691A607A68BB68D31A1A01BB69D9
:105C20001A604FE0BB681A01BB691A607B681B01F0
:105C30005A42FB691A607A68BB68D31A1A013B683A
:105C40001A603FE0BB681A01BB691A607B681B01E0
:105C50005A423B681A607A68BB68D31A1A01FB691A
:105C60001A602FE0BB681A01FB691A607B681B0190
:105C70005A423B681A607A68BB68D31A1A01BB693A
:105C80001A601FE0BB681A01FB691A607B681B0180
:105C90005A42BB691A607A68BB68D31A1A013B681A
:105CA0001A600FE0BB681A013B681A607B681B0131
:105CB0005A42BB691A607A68BB68D31A1A01FB6939
:105CC0001A6000BF00BF1437BD4680BC704780B566
:105CD00084B000AFF860B9607A603B604FF08E41ED
:105CE000F86800F06BFE0346184601F043F80346DF
:105CF0000E4A13600D4B0122DA600C4B01221A612F
:105D00000A4B00225A613B685B42084A9361074B89
:105D100042F210721A62054A7B685360034B4FF4DB
:105D200000729A6300BF1037BD4680BDB805FF1FE3
:105D300080B400AF044B00229A60034B0022DA6368
:105D400000BFBD4680BC7047B805FF1F80B586B058
:105D500000AF7860174B5B697A6802FB03F31B1393
:105D60003B61154B1B683A6902FB03F3DB13FB60D5
:105D7000114AFB6813640F4BDB6C0F4A13630F4827
:105D8000FEF7C8FF0B4BDB6C7B617B69002B02DAF3
:105D90007B695B427B61FA687B69D31A064AD361EF
:105DA0000748FEF7D3FF044B5B6A18461837BD4619
:105DB00080BD00BF4C05FF1FB805FF1FE805FF1F92
:105DC000C005FF1F81F0004102E000BF83F00043E7
:105DD00030B54FEA41044FEA430594EA050F08BF86
:105DE00090EA020F1FBF54EA000C55EA020C7FEA4A
:105DF000645C7FEA655C00F0E2804FEA5454D4EBC7
:105E00005555B8BF6D420CDD2C4480EA020281EA90
:105E1000030382EA000083EA010180EA020281EAC8
:105E20000303362D88BF30BD11F0004F4FEA01311A
:105E30004FF4801C4CEA113102D0404261EB410129
:105E400013F0004F4FEA03334CEA133302D05242AF
:105E500063EB430394EA050F00F0A780A4F101046B
:105E6000D5F1200E0DDB02FA0EFC22FA05F28018A5
:105E700041F1000103FA0EF2801843FA05F359418B
:105E80000EE0A5F120050EF1200E012A03FA0EFC0A
:105E900028BF4CF0020C43FA05F3C01851EBE37134
:105EA00001F0004507D54FF0000EDCF1000C7EEB51
:105EB00000006EEB0101B1F5801F1BD3B1F5001F8F
:105EC0000CD349085FEA30004FEA3C0C04F10104AE
:105ED0004FEA445212F5800F80F09A80BCF1004FD7
:105EE00008BF5FEA500C50F1000041EB045141EA59
:105EF000050130BD5FEA4C0C404141EB0101013C22
:105F000028BFB1F5801FE9D291F0000F04BF014610
:105F10000020B1FA81F308BF2033A3F10B03B3F1E2
:105F200020020CDA0C3208DD02F1140CC2F10C0272
:105F300001FA0CF021FA02F10CE002F11402D8BFD0
:105F4000C2F1200C01FA02F120FA0CFCDCBF41EA9C
:105F50000C019040E41AA2BF01EB0451294330BD6B
:105F60006FEA04041F3C1CDA0C340EDC04F1140448
:105F7000C4F1200220FA04F001FA02F340EA03001F
:105F800021FA04F345EA030130BDC4F10C04C4F165
:105F9000200220FA02F001FA04F340EA0300294645
:105FA00030BD21FA04F0294630BD94F0000F83F48F
:105FB000801306BF81F480110134013D4EE77FEA72
